:100000000C948B020C94B3020C94B3020C94B302C4
:100010000C94B3020C94B3020C94B3020C94B3028C
:100020000C94B3020C94B3020C947A120C94E9125F
:100030000C94B3020C94B3020C94B3020C94B3026C
:100040000C94B3020C94B3020C94B3020C94B3025C
:100050000C94B3020C945F150C94B3020C94151518
:100060000C94B3020C94B3020C94B3020C94B3023C
:100070000C94B3020C94B3020C94B3020C94B3022C
:100080000C94B3020C94B3020C94B3020C94B3021C
:100090000C94B3020C94B3020C94B3020C94B3020C
:1000A0000C94B3020C94B3020C94B3020000000051
:1000B0000000000000000000000000002A002B00EB
:1000C0002800000000000000000000000000000008
:1000D0000000000000000000000000000000000020
:1000E0000000000000000000000000002C001E02C4
:1000F00034022002210222022402340026022702B6
:1001000025022E0236002D003700380027001E0081
:100110001F002000210022002300240025002600CB
:100120003302330036022E00370238021F02040267
:10013000050206020702080209020A020B020C026B
:100140000D020E020F02100211021202130214021B
:10015000150216021702180219021A021B021C02CB
:100160001D022F003100300023022D023500040053
:10017000050006000700080009000A000B000C003B
:100180000D000E000F0010001100120013001400EB
:10019000150016001700180019001A001B001C009B
:1001A0001D002F023102300235020000E000E100A4
:1001B000E200E300E400E500E600E70000000000E4
:1001C000000000000000000000000000000000002F
:1001D000000000000000000000000000000000001F
:1001E000000000000000000000000000000000000F
:1001F00000000000000000000000000000000000FF
:10020000000000000000000000000000280029009D
:100210002A002B0000000000000000000000000089
:100220000000000000000000000000000000390095
:100230003A003B003C003D003E003F0040004100D2
:100240004200430044004500460047004800490082
:100250004A004B004C004D004E004F005000510032
:1002600052005300540055005600570058005900E2
:100270005A005B005C005D005E005F006000610092
:1002800062006300000000000000000068006900D8
:100290006A006B006C006D006E006F0070007100F2
:1002A0007200730000000000000000000501090654
:1002B000A101050719E029E7150025017501950839
:1002C0008102050C95017508150026FF001900290B
:1002D000FF8100050819012908950875019102059B
:1002E0000795067508150026E700190029E7810023
:1002F000C000000000240027002A002D003000006C
:100300000000002300260029002C002F0000000020
:100310000200090F0000030401000C0000000000AF
:10032000000000000000000000000000080B0002B8
:10033000020200000904000001020200000524007E
:100340001001052401010104240206052406000110
:100350000705810310004009040100020A000000A3
:100360000705020240000007058302400000040365
:10037000090412010002EF0201404123368000010E
:100380000102030141726475696E6F204C4C430099
:1003900041726475696E6F204C656F6E6172646F37
:1003A0000001080C0F0E0A091100070D0502130BBE
:1003B000040612031009080706050F0E100A0501AE
:1003C000090EA101850A050D0921A10005090901F0
:1003D0009501750115002501810205010937950177
:1003E000750F550F651436F0F146100E16F0F12614
:1003F000100E8106C0C005010902A1018501050991
:1004000019012908150025019508750181020501CA
:100410000930093109381581257F75089503810652
:10042000C005010906A1018502050719E029E715A4
:10043000002501750195088102050C9501750815C7
:100440000026FF00190029FF8100050795067508A1
:10045000150026E700190029E78100C005010904FD
:10046000A10185060509190129201500250175013D
:10047000952081020501A1000930093109330934B1
:1004800016008026FF7F7510950481020932093518
:100490001580257F750895028102C005010939097B
:1004A0003915012508950275048102C0050C090162
:1004B000A1018504150026FF0319002AFF039504F6
:1004C00075108100C00408020110408040102040D7
:1004D000804080080204018040201002011080103A
:1004E0002040402000000000250028002B002E00A6
:1004F000310004040404040304050202020204039C
:1005000002020202060606060606040402020204AD
:1005100004005A16641E11241FBECFEFDAE0DEBFBE
:10052000CDBF25E0A6E3B4E001C01D92A03BB20719
:10053000E1F714E0A0E0B1E0E2E5F7E402C00590E5
:100540000D92A633B107D9F712E0CAE8D2E004C091
:100550002197FE010E94FA1EC938D107C9F70E94EF
:10056000CA170C949C230C9400004F925F926F92D8
:100570007F928F929F92AF92BF92FF9220919805A7
:10058000309199058217930708F043C02B01662428
:100590007724852E962EA72EBB24B82DA42F20912C
:1005A0009E05F42C222391F0E22FF0E0E49DD0018F
:1005B000E59DB00DF49DB00D1124FB2E289D40014A
:1005C0001124B92D249F90011124A32FE091A4059B
:1005D00020919F053091A0055091A105E51323C0FE
:1005E000FC01EE0FFF1F8E0F9F1F820F931FE091E4
:1005F000A105E80FF92FF11DF082E091A205E80FA7
:10060000F92FF11DB0832091A305820F911DFC01EC
:10061000A083FF90BF90AF909F908F907F906F903E
:100620005F904F900895880F991F880F991F820F30
:10063000931FE80FF92FF11D1082D9CFFC01809193
:10064000AA04882311F13FB7F89482E08093E9006F
:100650002091F200822F90E01816190614F481E020
:1006600090E0882339F0289844E64093A90440910B
:10067000F1004083222339F02091F200211103C0C0
:100680002BE62093E8003FBF08958FEF9FEF08957A
:10069000FC01248135816217730720F480819181E8
:1006A000009729F41092680488E694E00895860F74
:1006B000971F089508954091640450916504209116
:1006C00062043091630442175307B4F49091E80038
:1006D0009570E1F39091E80092FD19C08093F100CC
:1006E000809164049091650401968F739927892BFA
:1006F00019F48EEF8093E800809164049091650472
:100700000196909365048093640481E0089580E0ED
:100710000895DF92EF92FF920F931F93CF93DF9391
:10072000D82E8A01EB017B01E40EF51ECE15DF0504
:1007300059F0D7FE12C0FE0184910E945B032196FE
:100740008111F4CF0FEF1FEFC801DF91CF911F91FF
:100750000F91FF90EF90DF9008958881EECF2FB733
:10076000F89487708093E9009091E800892F807257
:1007700095FF04C09091F20080E4891B2FBF08957B
:10078000615030F02091F100FC0120830196F8CFF8
:10079000289884E68093A9040895AF92BF92DF92CF
:1007A000EF92FF920F931F93CF93DF935C018B0126
:1007B000EB019BEFD92E2097C1F07E01C134D1050A
:1007C0001CF080E4E82EF12C8091E80082FFFCCF41
:1007D000C8018C1B9D0B6E2D8A0D9B1D0E94C003B2
:1007E000D092E800CE19DF09E6CFC801DF91CF91A2
:1007F0001F910F91FF90EF90DF90BF90AF90089501
:10080000AF92BF92CF92DF92EF92FF920F931F931E
:10081000CF93DF936C017B018B01040F151FEB015C
:100820005E01AE18BF08C017D10759F06991D60113
:10083000ED91FC910190F081E02DC6010995892B85
:1008400079F7C501DF91CF911F910F91FF90EF9044
:10085000DF90CF90BF90AF90089580915A0481119E
:100860000DC082E08093560484E080935704109278
:1008700059041092580481E080935A0486E594E06C
:1008800008950F931F93CF93DF931F92CDB7DEB7D9
:1008900082E0898342E450E06CE273E080E80E94E9
:1008A00089030E942D04DC0112960D911C91011503
:1008B000110589F0D801ED91FC910280F381E02DC2
:1008C000BE016F5F7F4FC801099597FD04C0F80115
:1008D00000851185ECCF89810F90DF91CF911F9119
:1008E0000F910895CF93DF93FC01DB018181149672
:1008F0003C911497682F630F7727771F6830710535
:100900009CF5C281D381209739F5B383A28390816E
:1009100012969C93129713968C93139715968C911D
:100920001597890F808390E080E0831708F5218177
:10093000C22FD0E0BE016C5F7E4F16964D915C9148
:100940001797480F591FEA014881EB0148832F5F31
:1009500021830196EACFEA01488559854115510561
:10096000D1F7B987A887D3CF80E0DF91CF910895E1
:1009700081E0FBCFCF93DF931F92CDB7DEB76983C2
:10098000DC01ED91FC910280F381E02D41E050E02B
:10099000BE016F5F7F4F09950F90DF91CF91089552
:1009A00083E08093E9008091F200882319F08AE3C4
:1009B0008093E800089583E00E94AF0390E00895DB
:1009C000CF93DF931F92CDB7DEB7FC018485958569
:1009D00097FD08C02FEF3FEF358724870F90DF91F9
:1009E000CF910895CE0101960E941E03019719F43C
:1009F000898190E0F3CF8FEF9FEFF0CF2FB7F8947E
:100A00008091AB049091AC04A091AD04B091AE0480
:100A10002FBF8093B7049093B804A093B904B09308
:100A2000BA048FEA94E00E94E00497FF26C02FB733
:100A3000F8948091AB049091AC04A091AD04B09176
:100A4000AE042FBF4091B7045091B8046091B9042F
:100A50007091BA04841B950BA60BB70B4091B3049D
:100A60005091B4046091B5047091B6048417950751
:100A7000A607B707B0F28FEF9FEF08950F931F936C
:100A8000CF93DF931F92CDB7DEB78C01FC01848535
:100A9000958597FF0BC0CE0101960E941E0301971A
:100AA00071F4898190E0F80195878487F801848545
:100AB00095850F90DF91CF911F910F9108958FEF42
:100AC0009FEFF1CFFC018485958597FD0BC09FB703
:100AD000F89482E08093E9008091F2009FBF90E05B
:100AE000019608959FB7F89482E08093E900809181
:100AF000F2009FBF90E0089581508F3008F047C00A
:100B0000E82FF0E0EA57FA4F0C94FA1EA305A70568
:100B100095059B059F05C705C705C705AA05B0052F
:100B2000B405B805BE05C705C205809180008F7762
:100B3000809380000895809180008F7DF9CF80910F
:100B40008000877FF5CF84B58F7784BD089584B505
:100B50008F7DFBCF809190008F77809390000895D8
:100B6000809190008F7DF9CF80919000877FF5CFA5
:100B70008091C0008F778093C00008958091C0005D
:100B80008F7DF9CF8091C200877F8093C200089546
:100B9000CF93DF93282F30E0F901E35FFC4F84917E
:100BA000F901EB53FB4FD491F901EE50FB4FC49187
:100BB000CC23A1F081110E947C05EC2FF0E0EE0F18
:100BC000FF1FE150FD4FA591B491EC91ED2381E021
:100BD00090E009F480E0DF91CF91089580E090E00B
:100BE000FACF1F93CF93DF93282F30E0F901E35F13
:100BF000FC4F8491F901EB53FB4FD491F901EE5076
:100C0000FB4FC491CC23A9F0162F81110E947C05C3
:100C1000EC2FF0E0EE0FFF1FEC51FB4FA591B491CC
:100C20008FB7F894EC91111108C0D095DE23DC93B6
:100C30008FBFDF91CF911F910895DE2BF8CFCF9317
:100C4000DF9390E0FC01EB53FB4F24918E509B4FC0
:100C5000FC0184918823C9F090E0880F991FFC0162
:100C6000EF50FD4FA591B491FC01EC51FB4FC591A4
:100C7000D49161110DC09FB7F8948C912095822377
:100C80008C938881282328839FBFDF91CF9108957B
:100C9000623051F49FB7F8943C91822F8095832362
:100CA0008C93E8812E2BEFCF8FB7F894EC912E2BFD
:100CB0002C938FBFEACF3FB7F89480915204909164
:100CC0005304A0915404B091550426B5A89B05C0C7
:100CD0002F3F19F00196A11DB11D3FBFBA2FA92FBB
:100CE000982F8827BC01CD01620F711D811D911DB8
:100CF00042E0660F771F881F991F4A95D1F7089524
:100D00000F931F93CF93DF93CDB7DEB729970FB61D
:100D1000F894DEBF0FBECDBF80919F059091A005D6
:100D2000892B09F47CC00E945B060091A5051091F7
:100D3000A6052091A7053091A805601771078207C5
:100D4000930740F46093A5057093A6058093A705CB
:100D50009093A8050091A5051091A6052091A705DF
:100D60003091A805601B710B820B930B6C327140A4
:100D700081059105C0F2F89480919A0590919B05A8
:100D80009A838983E0919F05F091A005DF01119678
:100D90008081898790919605E091A905F091AA0537
:100DA0008091AB05992309F445C09081982B9887D1
:100DB0009081809589238F838F818C8388E08B83BA
:100DC00058856F8149853B812C8189819A81508327
:100DD00047FD252F3A952083262F39F0441F00C068
:100DE00000006083000000C0F2CF38E04D916083C6
:100DF0000000019761F7F093AA05E093A9054987E0
:100E00003B832C839A83898378940E945B0660934A
:100E1000A5057093A6058093A7059093A80529962C
:100E20000FB6F894DEBF0FBECDBFDF91CF911F91FB
:100E30000F9108959081982B9887908180958923B0
:100E40008F838F818E8388E08D8358856F8149855C
:100E50003D812E8189819A81508347FD252F00C0D5
:100E600000C0208300C000C000C000C000C060837C
:100E70000000262F3A9541F0441F000000C000C03A
:100E800000C000C000C0E8CF38E04D9100C06083D2
:100E900000C0019709F7F093AA05E093A9054987D7
:100EA0003D832E83AFCF8F929F92AF92BF92CF920E
:100EB000DF92EF92FF924B015C010E945B066B0197
:100EC0007C010E945B066C197D098E099F09683EB2
:100ED000734081059105A8F321E0821A9108A108C9
:100EE000B10888EEC80E83E0D81EE11CF11C811405
:100EF0009104A104B10429F7FF90EF90DF90CF9007
:100F0000BF90AF909F908F9008957F928F929F9205
:100F1000AF92BF92CF92DF92EF92FF920F931F9307
:100F2000CF93DF93C82E8B017A018091AA0481119F
:100F300010C08FEF9FEFDF91CF911F910F91FF9026
:100F4000EF90DF90CF90BF90AF909F908F907F9069
:100F500008958091690480FF05C08091E00082605F
:100F60008093E000CE2DDF2DD12C8AEFB82E8C2D72
:100F70008770982E8C2D8072882E8C2D8074782E00
:100F80009AE3A92E209719F4DD2009F452C08C2D84
:100F90000E94AF0381110AC0BA94BB2051F261E0F4
:100FA00070E080E090E00E945307ECCF8C171D06A4
:100FB00011F00CF08C2F9FB7F8949092E9002091DB
:100FC000E80025FD02C09FBFDDCF282F30E0C21B07
:100FD000D30B882029F08150A0F01092F100FBCFB4
:100FE000F801C7FC0AC0815050F041914093F100D4
:100FF000FACF44914093F10031968150D0F7020F1F
:10100000131FDD2021F0A092E800D12CDCCF8091CD
:10101000E80085FD07C0A092E800DD24D394209766
:1010200091F2F3CF209779F6772069F2A092E80049
:10103000CACF5D9884E680936704C7017CCFCF93C5
:10104000DF93EC0180911601882331F083E00E9448
:1010500085071816190634F081E090E09B838A8397
:1010600080E090E0DF91CF910895DC01FB011296C2
:101070002C911297848195812817190641F491814A
:101080008081813A31F49D7F81E0913009F080E0E8
:1010900008958132E1F79B3029F482811F968C9369
:1010A00081E008959A3099F7828150968C93F8CF19
:1010B000AF92BF92CF92DF92EF92FF920F931F9366
:1010C000CF93DF931F92CDB7DEB77C0169836A01AE
:1010D000590141E050E0BE016F5F7F4FFC01838109
:1010E0000E9485078C0197FD0BC0F7018381A50144
:1010F000B60180640E948507080F191F97FD8C01B7
:10110000C8010F90DF91CF911F910F91FF90EF9049
:10111000DF90CF90BF90AF900895DC01FB0188E491
:10112000808389E4818384E482831D969C911D974A
:101130009F709F5B93831D968D919C9124E0969563
:1011400087952A95E1F78F708F5B848385E00895FA
:10115000EF92FF920F931F93CF93DF93FB012081B8
:10116000213871F52381223259F5DC0112964C9118
:10117000248135814217130619F5EC010B851C8576
:10118000F12CE12C0115110589F0F80144815581FC
:101190006281738180E80E9489038F3F980749F03C
:1011A000E80EF91ED8010D911C91ECCF81E08F87DC
:1011B000C701DF91CF911F910F91FF90EF9008959C
:1011C00090E080E0F6CFCF93DF93CDB7DEB769979D
:1011D0000FB6F894DEBF0FBECDBFFC01DB018C91D2
:1011E0008F5F8C939E012D5F3F4F8DE0D9011D9243
:1011F0008A95E9F729E0298384E08A8391E09D8339
:1012000083E08E832A8721E22B879C879D879F8797
:1012100022E2288B27E02B8B25E02C8B8E8B20E481
:1012200030E0388F2F8B998F82818B8395858685CF
:10123000998B8A8B838180688D8B49E150E0BE0158
:101240006F5F7F4F80E00E94890369960FB6F89424
:10125000DEBF0FBECDBFDF91CF910895CF938091B8
:10126000490481112CC0C1E0C0933C04C0933D04EB
:1012700082E494E090933F0480933E0410924104F2
:101280001092400482EB92E09093390480933804EA
:1012900010924404109243041092460410924504A4
:1012A000C0934704C093480481EC809342040E9499
:1012B0002D0468E374E00E947204C093490488E33B
:1012C00094E0CF910895CF93DF93EC01FB012A8145
:1012D000848195812817190609F04BC0818190817E
:1012E000913A79F4813029F0833039F48F898093F1
:1012F000F10081E0DF91CF9108958230D1F5888DA2
:10130000F6CF9132B1F58B3019F482818F8BF1CF0A
:101310008A3019F48281888FECCF893051F566814B
:1013200077818381833079F48C8D9D8D681779075F
:1013300001F58A8D9B8D0E94CD038C8D9D8D9068CB
:101340009D8F8C8FD6CF823051F46130710589F436
:1013500061E070E0CE0149960E94CD03CACF813092
:1013600041F46830710529F468E070E0CE010E9612
:10137000F3CF80E0BFCFFB0120812138B1F423817E
:10138000223299F4DC0112964C9112972481358116
:101390004217130651F421E057962C9345E450E090
:1013A0006CEA72E080E80C94890390E080E0089594
:1013B000CF93DF93CDB7DEB769970FB6F894DEBF52
:1013C0000FBECDBFFC01DB019C919F5F9C939E01F2
:1013D0002D5F3F4F81E1D9011D928A95E9F729E000
:1013E000298384E08A8391E09D8383E08E839F83B9
:1013F00098872A8721E22B879C879D879F8722E2F7
:10140000288B25E4298B27E02B8B25E02C8B8E8BDA
:1014100020E430E0388F2F8B998F82818B838381FA
:1014200080688D8B49E150E0BE016F5F7F4F80E0A7
:101430000E94890369960FB6F894DEBF0FBECDBF38
:10144000DF91CF910895FC0182818F5BFB01808346
:1014500081E008950F931F93CF93DF93EB018A01EF
:101460000E942E099801AE016AE0DF91CF911F9191
:101470000F910C945808CF93DF9300D0CDB7DEB70F
:1014800020912D05382F330F2170232B2983990F9D
:10149000881F8827881F892B8A8342E050E0BE017D
:1014A0006F5F7F4F8BE295E00E942A0A0F900F90AA
:1014B000DF91CF9108950F931F93CF93DF93EB01AB
:1014C0008A010E942E099801AE0161E0DF91CF915F
:1014D0001F910F910C945808CF93DF9300D000D048
:1014E000CDB7DEB790913E0599838A836B834C8399
:1014F00044E050E0BE016F5F7F4F8CE395E00E94B7
:101500005B0A0F900F900F900F90DF91CF9108958D
:1015100090913E0580958923981739F080933E0578
:1015200040E060E080E00C946C0A089590913E05E4
:10153000892B981739F080933E0540E060E080E009
:101540000C946C0A0895CF93DF93EC010E942E094E
:10155000AE014C5F5F4F28E030E062E0DF91CF9159
:101560000C94580890E080E008950F931F93CF9358
:10157000DF93EB018A010E942E099801AE0166E01B
:10158000DF91CF911F910F910C9458080F931F93E7
:10159000CF93DF93EB018A010E942E099801AE01DF
:1015A00064E0DF91CF911F910F910C945808E8E807
:1015B000F5E030E020E0419151912F5F3F4F452B06
:1015C00079F4220F331FF901EA57FA4F9183808390
:1015D00048E050E068E875E086E895E00C94C60ABB
:1015E0002430310541F7F4CFE6E8F5E0228133817C
:1015F0002817390711F413821282329625E0EE384B
:10160000F207A1F748E050E068E875E086E895E069
:101610000C94C60ACF93DF93D0E0C0E040E050E0E6
:10162000BA01CE010E94B5022196C431D105B1F7AD
:10163000DF91CF910895FC019C01285F3F4F90E01E
:1016400080E044814111019614823196E217F3073C
:10165000C1F70895CF93DF93DC0190E2960F9830A5
:10166000B0F414968C91149721E030E001C0220F61
:101670009A95EAF7442341F0282B14962C9381E0A5
:1016800090E0DF91CF91089520952823F6CFFD01BA
:1016900036964423D1F0CD010C96EF0129916217C3
:1016A00071F3C817D907D1F790E080E0219121119B
:1016B00005C0A80FB91F16966C93E1CF019686302E
:1016C0009105A1F790E080E0DCCF90E080E02191EF
:1016D000621305C0A80FB91F16961C92D0CF0196B1
:1016E00086309105A1F7EECFCF92DF92FF920F9354
:1016F0001F93CF93DF938C01F42EE62FF0E0EE0FD3
:10170000FF1FE455FF4FC590D490D801ED91FC9197
:101710000484F585E02D6C2DC8010995EC01892B19
:1017200011F4F11070C0D0FE0CC0D801ED91FC9105
:101730000484F585E02D4F2D60EEC8010995C82B76
:10174000D92BD1FE0CC0D801ED91FC910484F58514
:10175000E02D4F2D61EEC8010995C82BD92BD2FE83
:101760000CC0D801ED91FC910484F585E02D4F2D3E
:1017700062EEC8010995C82BD92BD3FE0CC0D80145
:10178000ED91FC910484F585E02D4F2D63EEC801A9
:101790000995C82BD92BD4FE0CC0D801ED91FC9132
:1017A0000484F585E02D4F2D64EEC8010995C82B02
:1017B000D92BD5FE0CC0D801ED91FC910484F585A0
:1017C000E02D4F2D65EEC8010995C82BD92BD6FE0B
:1017D0000CC0D801ED91FC910484F585E02D4F2DCE
:1017E00066EEC8010995C82BD92BD7FE0CC0D801CD
:1017F000ED91FC910484F585E02D4F2D67EEC80135
:101800000995C82BD92BCE01DF91CF911F910F9154
:10181000FF90DF90CF9008950F931F93CF93DF93A6
:10182000EC0140E00E94740B8C01892B39F0E881B7
:10183000F9810284F385E02DCE010995C801DF917D
:10184000CF911F910F9108950F931F93CF93DF9323
:10185000EC0141E00E94740B8C01892B39F0E88186
:10186000F9810284F385E02DCE010995C801DF914D
:10187000CF911F910F910895FF920F931F93CF93D4
:10188000DF938C01F62E0E94240CEC01892B21F0B1
:101890006F2DC8010E940C0CCE01DF91CF911F91DA
:1018A0000F91FF900895CF93DF93EC018881998188
:1018B000009711F00E949C1F198218821D821C82C1
:1018C0001B821A82DF91CF910895FC018081918162
:1018D000009711F00C949C1F0895FB0101900020CB
:1018E000E9F73197AF01461B570BDC01ED91FC91F5
:1018F0000280F381E02D0994CF93DF93BC018FEA3E
:1019000094E00E946D0CEC0166E173E08FEA94E0D4
:101910000E946D0C8C0F9D1FDF91CF910895CF9386
:10192000DF93FC0144815581608171818FEA94E0ED
:101930000E941F08EC0166E173E08FEA94E00E94C8
:101940006D0C8C0F9D1FDF91CF9108950C946D0C41
:10195000803208F0CDC0662309F4B2C081508E31C8
:1019600008F041C4E82FF0E0E854F34F0C94FA1E5D
:10197000D60CD90CDB0CDD0CDF0CF310F310E10CF2
:10198000E80CEC0CF20CF70CFD0C030D080D0B0D24
:101990000F0D130D1C0D230D2C0D330D410DF310E8
:1019A000F310F310F310F310F3104C0D81E00C94CE
:1019B000960A82E0FCCF84E0FACF88E0F8CF80E19D
:1019C000F6CF60910301619540E080E00C946C0AD1
:1019D00040E060910301F9CF8091030140E060E0B5
:1019E0008195F4CF40E060E080910301EFCF8091DA
:1019F0000301819540E0682FE9CF80910301682FB2
:101A0000619540E0E3CF8091030140E0682FE8CF8B
:101A100080910301EFCF4091020160E0D6CF409169
:101A200002014195FACF8091030188370CF0DBC3A6
:101A30008F5F8093030108958091030182300CF43D
:101A4000D2C38150F6CF8091020184310CF0CBC318
:101A50008F5F8093020108958091020182300CF41F
:101A6000C2C38150F6CF80910001909101018B306B
:101A7000910508F4B8C30197909301018093000188
:101A800008958091000190910101843F21E0920727
:101A900008F0A9C30196F0CF60E88DE495E00E94BC
:101AA000240C63E78DE495E00E94240C60E88DE44B
:101AB00095E00E940C0C63E78DE495E00C940C0C0F
:101AC000833081F028F4813041F0823049F008956C
:101AD000843051F0853051F0089581E00C94880AEB
:101AE00082E0FCCF84E0FACF88E0F8CF80E1F6CF47
:101AF00098E7980F983208F0BBC2662309F47AC1C0
:101B00008958873208F02DC0E82FF0E0E657F24FF1
:101B10000C94FA1EBF0DC20DC90DCC0DD30DD60D00
:101B2000DA0DDC0DE30DE80DED0DF20DF60DF80DFF
:101B3000FF0D020E140E1E0E280E320E3C0E460E27
:101B4000500E5A0E640E6E0E780E820E8C0E960E8D
:101B5000A00EAA0EB40EBE0EC80ED20EDC0EE60EFD
:101B6000F00E80E090E89093700580936F054FE051
:101B700050E069E675E087E695E00C94B50A8FEFD2
:101B80009FE7F1CF80E090E890936E0580936D051C
:101B9000EECF8FEF9FE7F8CF80E090E8909372054B
:101BA00080937105E4CF8FEF9FE7F8CF80E88093B3
:101BB0007505DDCF8FE7FBCF809177058F70806152
:101BC00080937705D4CF809177058F708065F8CFAB
:101BD000809177058F708067F3CF809177058F7044
:101BE0008063EECF80E880937605C1CF8FE7FBCF8F
:101BF00080E090E89093740580937305B8CF8FEFE1
:101C00009FE7F8CF8091690590916A05A0916B05D7
:101C1000B0916C0581608093690590936A05A093EB
:101C20006B05B0936C05A3CF8091690590916A050F
:101C3000A0916B05B0916C058260EDCF8091690534
:101C400090916A05A0916B05B0916C058460E3CF1B
:101C50008091690590916A05A0916B05B0916C0522
:101C60008860D9CF8091690590916A05A0916B0534
:101C7000B0916C058061CFCF8091690590916A0524
:101C8000A0916B05B0916C058062C5CF809169050C
:101C900090916A05A0916B05B0916C058064BBCFF3
:101CA0008091690590916A05A0916B05B0916C05D2
:101CB0008068B1CF8091690590916A05A0916B050C
:101CC000B0916C059160A7CF8091690590916A05EC
:101CD000A0916B05B0916C0592609DCF80916905D4
:101CE00090916A05A0916B05B0916C05946093CFBB
:101CF0008091690590916A05A0916B05B0916C0582
:101D0000986089CF8091690590916A05A0916B05D3
:101D1000B0916C0590617FCF8091690590916A05C3
:101D2000A0916B05B0916C05906275CF80916905AB
:101D300090916A05A0916B05B0916C0590646BCF92
:101D40008091690590916A05A0916B05B0916C0531
:101D5000906861CF8091690590916A05A0916B05AB
:101D6000B0916C05A16057CF8091690590916A058B
:101D7000A0916B05B0916C05A2604DCF8091690573
:101D800090916A05A0916B05B0916C05A46043CF5A
:101D90008091690590916A05A0916B05B0916C05E1
:101DA000A86039CF8091690590916A05A0916B0573
:101DB000B0916C05A0612FCF8091690590916A0563
:101DC000A0916B05B0916C05A06225CF809169054B
:101DD00090916A05A0916B05B0916C05A0641BCF32
:101DE0008091690590916A05A0916B05B0916C0591
:101DF000A06811CF8A58863208F02CC0E82FF0E096
:101E0000EC5FF04F0C94FA1E2F0F2F0F340F340F8E
:101E1000390F390F3C0F3C0F3C0F3C0F400F400F68
:101E2000430F430F480F520F5C0F660F700F7A0F6E
:101E3000840F8E0F980FA20FAC0FB60FC00FCA0FF2
:101E4000D40FDE0FE80FF20FFC0F061010101A105F
:101E500024102E101092700510926F0588CE1092EB
:101E60006E0510926D0583CE109272051092710569
:101E70007ECE109275057BCE809177058F70A0CEB7
:101E80001092760574CE10927405109273056FCE81
:101E90008091690590916A05A0916B05B0916C05E0
:101EA0008E7FB9CE8091690590916A05A0916B05EE
:101EB000B0916C058D7FAFCE8091690590916A05D8
:101EC000A0916B05B0916C058B7FA5CE80916905C3
:101ED00090916A05A0916B05B0916C05877F9BCEB0
:101EE0008091690590916A05A0916B05B0916C0590
:101EF0008F7E91CE8091690590916A05A0916B05C6
:101F0000B0916C058F7D87CE8091690590916A05AF
:101F1000A0916B05B0916C058F7B7DCE809169059A
:101F200090916A05A0916B05B0916C058F7773CE87
:101F30008091690590916A05A0916B05B0916C053F
:101F40009E7F69CE8091690590916A05A0916B058D
:101F5000B0916C059D7F5FCE8091690590916A0577
:101F6000A0916B05B0916C059B7F55CE8091690562
:101F700090916A05A0916B05B0916C05977F4BCE4F
:101F80008091690590916A05A0916B05B0916C05EF
:101F90009F7E41CE8091690590916A05A0916B0565
:101FA000B0916C059F7D37CE8091690590916A054F
:101FB000A0916B05B0916C059F7B2DCE809169053A
:101FC00090916A05A0916B05B0916C059F7723CE27
:101FD0008091690590916A05A0916B05B0916C059F
:101FE000AE7F19CE8091690590916A05A0916B052D
:101FF000B0916C05AD7F0FCE8091690590916A0517
:10200000A0916B05B0916C05AB7F05CE8091690501
:1020100090916A05A0916B05B0916C05A77FFBCDEF
:102020008091690590916A05A0916B05B0916C054E
:10203000AF7EF1CD8091690590916A05A0916B0505
:10204000B0916C05AF7DE7CD8091690590916A05EF
:10205000A0916B05B0916C05AF7BDDCD80916905DA
:1020600090916A05A0916B05B0916C05AF77D3CDC7
:10207000ECE4E80FED3008F070C0662309F462C0AC
:10208000EC3008F0B0C0F0E0E85BFF4E0C94FA1EB4
:1020900054105C10601063106A10711078107F107B
:1020A00086108D1094109B1082EE90E00E94D70A4B
:1020B00082EE90E00C94F40A89EE90E00C94D70A3A
:1020C0008AEE90E0FBCF8DEC90E00E94D70A8DEC79
:1020D00090E0F0CF87EB90E00E94D70A87EB90E08A
:1020E000E9CF85EB90E00E94D70A85EB90E0E2CF44
:1020F00086EB90E00E94D70A86EB90E0DBCF82E986
:1021000091E00E94D70A82E991E0D4CF8AE891E079
:102110000E94D70A8AE891E0CDCF83E292E00E9444
:10212000D70A83E292E0C6CF84E292E00E94D70A07
:1021300084E292E0BFCF85E292E00E94D70A85E276
:1021400092E0B8CF853B19F0863B21F0089589EEE7
:1021500090E0B0CF8AEE90E0ADCF94E1980F94304C
:1021600068F5662311F18E3E91F08F3E99F08D3E19
:1021700051F080912D05811136C081E080932D05AD
:1021800090E080E002C08AE090E00C943B0A86EF89
:102190009FEFFBCF809117018F5F863019F08093FE
:1021A000170108951092170108958C3EE1F4809173
:1021B0002D058823C1F010922D05E2CF8C3F50F001
:1021C000662389F08C3F79F464E174E08DE495E056
:1021D0000C94A60C662329F0682F8DE495E00C94EE
:1021E000240C682F69CC0895FC0124813581232BB0
:1021F00039F421E0FB018081882349F020E007C009
:10220000808191810E94EB2021E0892BB9F7822FF8
:1022100008950F931F93CF93DF938C01EB01FC0183
:10222000808191810097E1F0688179816115710564
:10223000A9F0428153812C813D814217530770F0F0
:102240000E94F4208C819D81F801958384831D82F6
:102250001C82DF91CF911F910F9108950E949C1FC6
:1022600088819981F801918380838A819B819383FE
:1022700082838C819D8195838483198218821B823D
:102280001A82E5CF0F931F93CF93DF93EC018881E0
:102290009981009759F02A813B812617370730F042
:1022A00081E0DF91CF911F910F9108958B016F5FB6
:1022B0007F4F0E942520009759F0998388831B83C4
:1022C0000A832C813D81232B59F7FC011082E8CF32
:1022D00080E0E7CFEF92FF920F931F93CF93DF93AE
:1022E0006115710541F480E0DF91CF911F910F914D
:1022F000FF90EF90089541155105B1F07B01EC017D
:102300000C811D81040F151FB8010E944211882302
:1023100051F3288139818C819D81B701820F931FF0
:102320000E94F4201D830C8381E0DECFCF93DF93E6
:10233000EC01FB0101900020E9F73197AF01461B4A
:10234000570B0E946A11811103C0CE010E94530CE9
:10235000CE01DF91CF910895CF93DF93EC01FB0184
:1023600044815581608171810E946A11811103C08D
:10237000CE010E94530CCE01DF91CF910895EF92D0
:10238000FF920F931F93CF93DF93EC017B018A01A0
:10239000BA010E94421181110BC0CE010E94530C60
:1023A000CE01DF91CF911F910F91FF90EF90089593
:1023B0001D830C83B701888199810E94F420F0CF9E
:1023C000FB0101900020E9F73197AF01461B570B45
:1023D0000C94BF110F931F93CF93DF93CDB7DEB74C
:1023E00061970FB6F894DEBF0FBECDBF8C01CB0155
:1023F000F8011182108213821282158214824AE03F
:10240000BE016F5F7F4F0E94831EBE016F5F7F4FD3
:10241000C8010E94E01161960FB6F894DEBF0FBEAE
:10242000CDBFDF91CF911F910F9108950F931F930F
:10243000CF93DF93CDB7DEB729970FB6F894DEBF01
:102440000FBECDBF8C01862FF8011182108213823E
:102450001282158214824AE0BE016F5F7F4F90E0C6
:102460000E94831EBE016F5F7F4FC8010E94E01172
:1024700029960FB6F894DEBF0FBECDBFDF91CF9186
:102480001F910F910895FC01118210821382128214
:1024900015821482FB0101900020E9F73197AF010A
:1024A000461B570B0C94BF110F931F93CF93DF93D1
:1024B00000D0CDB7DEB78C0168E173E00E94431213
:1024C0000E94FE0497FD0EC08A30910559F0898361
:1024D0001A8241E050E0BE016F5F7F4FC8010E9449
:1024E0006A11EECFC8010F900F90DF91CF911F912D
:1024F0000F9108951F920F920FB60F9211248F9390
:102500009F938091E1009091E100937F9093E1008F
:1025100083FF0FC01092E90091E09093EB001092BE
:10252000EC0092E39093ED001092AA0498E090934F
:10253000F00082FF22C093E09093E9009091F200B6
:10254000992319F09AE39093E800909167049923F6
:1025500041F090916704915090936704911101C0EC
:102560005D9A9091A904992341F09091A90491500A
:102570009093A904911101C0289A84FF18C08091FA
:10258000E2008E7E81608093E2008091E1008F7E88
:102590008093E100809169048E7E8061809369045C
:1025A0009F918F910F900FBE0F901F90189580FFF5
:1025B000F7CF8091E2008E7E80618093E20080916F
:1025C000E1008E7E8093E100809169048E7E8160BF
:1025D000E5CF1F920F920FB60F921124CF92DF9288
:1025E000EF92FF920F931F932F933F934F935F931D
:1025F0006F937F938F939F93AF93BF93EF93FF93CB
:10260000CF93DF93CDB7DEB76C97DEBFCDBF10920F
:10261000E9008091E80083FF25C068E0CE0145967F
:102620000E94C00382EF8093E8008D8987FF39C044
:102630009091E80090FFFCCF982F907609F034C17C
:102640009E894F89588D2F89F88C911131C080381F
:1026500061F580916A048093F1001092F1008EEF91
:102660008093E8006C960FB6F894DEBF0FBECDBF26
:10267000DF91CF91FF91EF91BF91AF919F918F919A
:102680007F916F915F914F913F912F911F910F918A
:10269000FF90EF90DF90CF900F900FBE0F901F90A4
:1026A00018959EEF9093E800C7CF1092F100D5CF18
:1026B000913059F48111D3CF4130510581F6809189
:1026C0006A048D7F80936A04CACF933049F48111E4
:1026D000C6CF4130510519F680916A048260F2CF6D
:1026E000953041F48091E80080FFFCCF2068209372
:1026F000E300B5CF963009F0A9C00B8D1C8D22E008
:102700001092E9001092650410926404F2122EC037
:1027100010926304109262040E9441041F8299E0A7
:102720009983FA8291E09E8390EA98879AEF99873D
:102730002091640430916504275F3F4F3C832B83D5
:102740008D831092E9001092650410926404109336
:1027500063040093620449E050E0BE016F5F7F4F65
:1027600080E00E9489030E94410479CF10936304A2
:10277000009362040E942D04DC0112960D911C91BD
:102780000115110509F44BC1D801ED91FC910480AC
:10279000F581E02DBE016B5E7F4FC8010995009762
:1027A00009F038C1F80100851185EACFF3E0FF1286
:1027B0000EC08F89882309F440C0823061F440E85C
:1027C00060E180E993E00E940C16811148CF81E21C
:1027D0008093EB0047CF813029F440E86BE084E838
:1027E00093E0F1CF833099F70E942D04DC0112961B
:1027F000ED90FC908E010F5F1F4F6801E114F10412
:1028000079F0D701ED91FC910680F781E02DB801B8
:10281000C7010995080F111DF701E084F184EECF7F
:10282000D8011C92F60101900020E9F73197BF0111
:102830006C197D0940E0C601C6CF6EE673E0FB016E
:10284000449150E080E80E94890309CF973009F451
:10285000BECF983021F481E08093F10000CF993011
:1028600009F0FDCE837009F0B2CFE5E0F1E081E040
:1028700031E096E32191222371F08093E9003093B7
:10288000EB00DF0111972C912093EC009093ED0069
:102890008F5F873079F78EE78093EA001092EA0025
:1028A0008F898093AA04DBCE8B8D9C8D1092E900DA
:1028B0001092650410926404909363048093620400
:1028C000898D81118CC08E899D89913A49F481321C
:1028D00009F07DCF47E050E06FE071E080E0B3CFDA
:1028E000913209F074CF833269F48F89988DB0E00A
:1028F000A0E080930B0190930C01A0930D01B09385
:102900000E01ADCE803239F467E070E08FE091E0E7
:102910000E94CD03A4CE823209F0A1CE8F8980938C
:102920001601EEEFFFE7859194918B3F9C4D51F19D
:10293000E0E0F8E080910F0190911001A091110169
:10294000B0911201803B9440A105B105F1F4809152
:10295000160180FD1AC0EE3F8AE0F80789F587E787
:1029600097E791838083809160008093660488E17B
:102970009BE00FB6F894A895809360000FBE9093EB
:1029800060006DCEEEEFFAE0D5CF80819181873780
:10299000974709F064CEA895809160008861809384
:1029A00060008091660480936000EE3F2AE0F207A9
:1029B00089F08091FE0A9091FF0A918380834FCE27
:1029C000808191818737980751F29093FF0A809315
:1029D000FE0AC5CF1092FF0A1092FE0A40CE0E9456
:1029E0002D04DC0112960D911C910115110509F4BD
:1029F000EECED801ED91FC910190F081E02DBE0169
:102A00006B5E7F4FC8010995811129CEF8010085C1
:102A10001185EBCF181619060CF421CED8CEF1E0B3
:102A2000FF12C4CE62E773E00ACF1F920F920FB677
:102A30000F9211242F933F938F939F93AF93BF9344
:102A40008091AB049091AC04A091AD04B091AE0420
:102A50003091510423E0230F2D3758F50196A11D25
:102A6000B11D209351048093AB049093AC04A093C8
:102A7000AD04B093AE048091520490915304A091A0
:102A80005404B09155040196A11DB11D80935204C8
:102A900090935304A0935404B0935504BF91AF9105
:102AA0009F918F913F912F910F900FBE0F901F908C
:102AB000189526E8230F0296A11DB11DD2CF1F92B3
:102AC0000F920FB60F9211242F923F924F925F9266
:102AD0006F927F928F929F92AF92BF92CF92DF922E
:102AE000EF92FF920F931F932F933F934F935F9318
:102AF0006F937F938F939F93AF93BF93CF93DF9306
:102B0000EF93FF9380913604909137040196909350
:102B1000370480933604209100013091010182171F
:102B2000930708F456C0D0E0C0E050E8252E312CC1
:102B3000CE01880F991F30E4432E512C082E02C07D
:102B4000559447940A94E2F7310102C07594679452
:102B50008A95E2F748E1E42E41E0F42E10E000E02F
:102B6000CE018F579B4F6C01FE01E559FB4F5F0172
:102B7000F701848190E09C0124213521232BC1F0B1
:102B800086219721F501892B09F4F601E00FF11F49
:102B90008081882369F061E047018C0E9D1EF4015D
:102BA00080810E94A80C60E0F40180810E94A80C42
:102BB000F5E0EF0EF11C0C5F1F4F04311105C1F65B
:102BC0002196C430D10509F0B3CF1092370410928A
:102BD0003604FF91EF91DF91CF91BF91AF919F911B
:102BE0008F917F916F915F914F913F912F911F91A5
:102BF0000F91FF90EF90DF90CF90BF90AF909F909C
:102C00008F907F906F905F904F903F902F900F909C
:102C10000FBE0F901F901895EF92FF920F931F9386
:102C2000CF93DF93F82E192FE62E042F81E0860F25
:102C3000880F0E945B0383E00E945B03CF2DD12F9E
:102C4000EC0EFD2EF11CCE15DF05B9F007FF13C009
:102C5000FE0184910E945B03182F80E00E945B03B9
:102C6000812321968111EFCFDF91CF911F910F9199
:102C7000FF90EF9008958881EDCF81E0F5CFFC01C2
:102C8000A385B485109771F47487638785859685CD
:102C9000DB0114962D913C91820F931F96878587B7
:102CA0000895DC018D919C9111970097D1F76D9358
:102CB0007C93ECCFCF931092B2041092B10488EEC3
:102CC00093E0A0E0B0E08093B3049093B404A093A9
:102CD000B504B093B6048EEB92E09093B004809369
:102CE000AF048FEF9FEF9093BC048093BB04C1E0CF
:102CF000C0930305C093040585E195E09093060514
:102D000080930505109208051092070510920C0596
:102D100010920B0580ED92E0909300058093FF04E4
:102D20008EED92E090930A0580930905C0931605F5
:102D3000C09317051092180510921A0510921905E4
:102D400010921C0510921B0581EC809315050E94C2
:102D50002D046FEF74E00E94720410922D0580EF35
:102D600092E090932C0580932B058091230581118F
:102D700012C010921E0510921D058EEB93E09093E9
:102D8000200580931F0588E390E0909322058093AF
:102D90002105C09323050E942E096DE175E00E9474
:102DA0003F1610923E0586EF92E090933D0580938A
:102DB0003C0580913405811113C010922F051092AB
:102DC0002E0586EF93E090933105809330058BE2DA
:102DD00090E0909333058093320581E08093340531
:102DE0000E942E096EE275E00E943F161092500577
:102DF00010924F058CEF92E090934E0580934D0515
:102E000080914505811113C01092400510923F0535
:102E100081E294E090934205809341058BE390E03A
:102E2000909344058093430581E0809345050E947B
:102E30002E096FE375E00E943F168EE093E09093B9
:102E400068058093670580915F05811113C010921A
:102E50005A05109259058CE594E090935C05809397
:102E60005B0580E590E090935E0580935D0581E0D1
:102E700080935F050E942E0969E575E00E943F1668
:102E800084E193E0909387058093860580917E0589
:102E9000811113C010927905109278058CEA94E0A4
:102EA00090937B0580937A0589E190E090937D056E
:102EB00080937C0581E080937E050E942E0968E75F
:102EC00075E00E943F161092970510929E05109291
:102ED000A5051092A6051092A7051092A80581E0FD
:102EE0008093A4058093A1051092A20592E090938F
:102EF000A305809396058CE390E090939B058093C7
:102F00009A050E94001F9093A00580939F0500974B
:102F100009F437C02CE3FC0111922A95E9F784E10A
:102F200090E0909399058093980584E090E09093C9
:102F30009D0580939C0580919705882341F061E071
:102F400084E00E941F0660E084E00E94F105E6EF45
:102F5000F4E0E491F0E0EE0FFF1FEC51FB4F8591A0
:102F600094919093AA058093A905E9ECF4E0E4918B
:102F7000E093AB0568E173E080E995E0CF910C94B4
:102F8000431210929B0510929A0510929905109287
:102F90009805CBCFCF93DF93CDB7DEB7E3970FB6CE
:102FA000F894DEBF0FBECDBF789484B5826084BD37
:102FB00084B5816084BD85B5826085BD85B581603D
:102FC00085BD80916E00816080936E0010928100BB
:102FD0008091810082608093810080918100816076
:102FE0008093810080918000816080938000809137
:102FF0009100826080939100809191008160809324
:103000009100809190008160809390008091C10038
:1030100084608093C1008091C10082608093C10070
:103020008091C10081608093C1008091C300816064
:103030008093C3008091C00082608093C000809123
:10304000C20081608093C20080917A008460809386
:103050007A0080917A00826080937A0080917A0071
:10306000816080937A0080917A00806880937A00F2
:103070001092AA0410926A04109269048091D700F9
:1030800081608093D70080EA8093D80089B5806101
:1030900089BD89B5826089BD09B400FEFDCF61E0BC
:1030A00070E080E090E00E9453078091D8008F7C10
:1030B00080618093D8008091E000807F8093E00061
:1030C0008091E1008E7E8093E1008DE08093E200AC
:1030D000559A209A0AEB13E0F801F1908F0161E014
:1030E0008F2D0E941F0661E08F2D0E94F105F3E0F5
:1030F0000E3B1F0789F705EB13E062E0F8018191B1
:103100008F010E941F06F3E00A3B1F07B1F789E019
:1031100095E00E941B0B89E095E00E94611E1092D1
:103120003E0540E060E080E00E946C0A10922D05B0
:1031300090E080E00E943B0A8FEF9FEF9093BC04E9
:103140008093BB0480919C0590919D0597FD08C0DC
:1031500061E00E941F0660E080919C050E94F105DD
:1031600081E08093970514BC15BC16BC8AEF87BD1F
:1031700085B5886085BD85B5836085BD80916E000D
:10318000826080936E004FE05FE06FE070E090E05F
:1031900080E00E94B5020E94800610E000E062E339
:1031A00070E080E090E00E94530740E050E0BA01F8
:1031B000C8010E94B5020F5F1F4F4FE05FE06FE054
:1031C00070E0C8010E94B5020E948006033111051B
:1031D00031F740E050E0BA0183E190E00E94B5028F
:1031E0000E94800678949E012F5F3F4F3901BE01F7
:1031F0006B5D7F4F7BA76AA7462E75E0470E55246F
:1032000053948FEA94E00E946205892B09F06EC006
:1032100061E08FE00E94F10561E08EE00E94F1051F
:1032200061E080E10E94F10561E08AE00E94F10521
:103230008AEB93E09FA78EA7F12CE12CEEA5FFA5CA
:103240002190FFA7EEA760E0822D0E94F105C70143
:10325000880F991F20E430E0082E02C0359527958D
:103260000A94E2F739AB28AB60E870E002C07595CC
:1032700067958A95E2F77BAB6AAB68E1C62E61E0A1
:10328000D62EC70185599B4F4C0171E8A72E74E0DB
:10329000B72E87010F571B4FE5EBF3E0FDA7ECA717
:1032A000F601248130E04AA95BA942235323ECA50F
:1032B000FDA58191FDA7ECA768A979A9262337234D
:1032C000232B09F4B4C3452B09F475C3F4013080F2
:1032D0000E94C805F801892B09F0D5C380818111AE
:1032E00071C33524F4013082F8016BC380916E0004
:1032F00010926E00C3010E945412B30180E995E060
:103300000E940911C3010E94650C18A21F8E1AA207
:1033100019A21CA21BA260919005709191056115E4
:10332000710541F04091940550919505CE014F965D
:103330000E94BF11CE014F960E948F0C69E173E08D
:10334000CE014F960E94F410882309F45DC0F12C41
:10335000E12C67018701A5E03A2E580195E0A90EFE
:10336000B11C4601801A910AF401E00FF11FE85EDA
:10337000FE4F6081C8010E94B51E0F5F1F4FA0164F
:10338000B10691F73A94E5E0CE0ED11C31103AC067
:10339000F9E1EF0EF11C20E9E21621E0F206C9F690
:1033A0008EE193E00E947C0C60E971E0CE014396CF
:1033B0000E94EA111A8219821C821B821E821D82BF
:1033C0006B897C896115710529F04F89588DC3017E
:1033D0000E94BF116DE273E0C3010E9496110E942A
:1033E0008F0CC3010E94650CCE0143960E94650CB0
:1033F000CE014F960E94650C80916E008260809392
:103400006E00FFCE8501A9CF61E473E0CE014F9637
:103410000E94F410882309F442C0F12CE12C6701CA
:103420008701F5E03F2E580135E0A30EB11C46019F
:10343000801A910AC8010E94AD1EF401E00FF11F2D
:10344000E85EFE4F80830F5F1F4F0A151B0591F743
:103450003A9465E0C60ED11C3110E5CF79E1E70E54
:10346000F11C80E9E81681E0F806C9F660E971E030
:10347000CE0143960E94EA111A8219821C821B8295
:103480001E821D826B897C896115710529F04F8927
:10349000588DC3010E94BF1166E473E09DCF6CE5B7
:1034A00073E0CE014F960E94F410882309F486C081
:1034B00082E693E00E947C0CE8E1EE2EE1E0FE2E35
:1034C000B12C6FE773E08FEA94E00E94A60C6701CD
:1034D000A12C6FE773E08FEA94E00E94A60C10E045
:1034E00000E0F601E00FF11F80811F928F93E1E869
:1034F000F3E0FF93EF937F926F920E94FB20B30162
:103500008FEA94E00E94A60C0F900F900F900F90FE
:103510000F900F90043031F068E873E08FEA94E088
:103520000E94A60C0F5F1F4F05301105D1F66AE807
:1035300073E08FEA94E00E94A60C34E0A31631F009
:1035400068E873E08FEA94E00E94A60CA39465E01B
:10355000C60ED11C75E0A712BCCF6AE873E08FEAF3
:1035600094E00E94A60C8FE068E873E0B81202C0F5
:103570006EE873E08FEA94E00E94A60C6B2DC30105
:103580000E9416126CE873E0CE0143960E9443122B
:10359000B301CE0143960E94AC110E948F0CCE0164
:1035A00043960E94650CC3010E94650CB39499E197
:1035B000E90EF11CE0E1BE1284CF1ACF60E973E09E
:1035C000CE014F960E94F410882309F4EFC168E100
:1035D00073E0CE0149960E9443121C8A1B8A1E8A00
:1035E0001D8A188E1F8A4AE0B3018FE090E00E9486
:1035F000781EB301CE0143960E94E01168E973E0A2
:10360000C3010E944312BE016D5E7F4FC3010E9441
:10361000AC1162EB73E00E9496110E948F0CC30103
:103620000E94650CCE0143960E94650C0AE068E199
:1036300073E0CE0149960E94E0118FEA94E00E9467
:103640006205892BD1F38FEA94E00E946205892BF1
:1036500081F0C3010E945412B301CE0149960E9429
:103660000911C3010E94650CCE0149960E948F0C7E
:10367000EACF70E060E0CE0149960E944803FC0169
:10368000808180332CF484EB93E00E947C0CCFCFBC
:1036900070E060E0CE0149960E944803FC01808101
:1036A0008A338CF770E060E0CE0149960E944803AF
:1036B000FC01108161E070E0CE0149960E94480350
:1036C000FC0180818033FCF261E070E0CE0149961C
:1036D0000E944803FC0180818A33ACF661E070E00F
:1036E000CE0149960E9448031053FC019080F0EDF2
:1036F0009F0E109F900C11242FE0291520F2692DA8
:10370000C3010E9416126BEC73E0CE0143960E9437
:103710004312B301CE0143960E94AC1164ED73E0F5
:103720000E9496110E948F0CCE0143960E94650C58
:10373000C3010E94650C8EED93E00E947C0C8AEF21
:1037400093E00E947C0C39E1939EC0011124BC01DE
:10375000685E7E4F7B01812C682DC3010E9416128A
:1037600067E174E0CE0143960E944312B301CE019B
:1037700043960E94AC110E948F0CCE0143960E948A
:10378000650CC3010E94650C1DA21EA21FA218A6F3
:1037900019A668E173E0CE0149960E94E0118FEA14
:1037A00094E00E946205892BD1F38FEA94E00E9495
:1037B0006205892B61F0C3010E945412B301CE014E
:1037C00049960E940911C3010E94650CEECFCE01FB
:1037D00085966C0100E010E0302E0F3F110529F4B2
:1037E00084EB93E00E947C0CCFCFB801CE014996C8
:1037F0000E944803FC0180810F5F1F4F803361F7F7
:10380000B801CE0149960E944803FC0180818837A7
:1038100019F702E0030DF4E03F0E212CF6011081B0
:103820001295107F1083A02EB12CB501CE014996C0
:103830000E944803FC0180818033E4F4B501CE018D
:1038400049960E944803FC018081813444F1B5010E
:10385000CE0149960E944803FC0180818734FCF424
:10386000B501CE0149960E944803FC018081180FE2
:10387000175312C0B501CE0149960E944803FC01BE
:1038800080818A33DCF6B501CE0149960E94480357
:10389000FC018081180F1053F601108302C022240E
:1038A00023940F5F0311BACFFFEFCF1ADF0A4C103A
:1038B00092CF211095CF8DA1F70180838EA18183B6
:1038C0008FA1828388A5838389A5848310E000E08B
:1038D000F701E00FF11F80811F928F9321E833E001
:1038E0003F932F937F926F920E94FB20B3018FEA48
:1038F00094E00E94A60C0F900F900F900F900F90E5
:103900000F90043031F068E873E08FEA94E00E9491
:10391000A60C0F5F1F4F05301105D1F666E173E06D
:103920008FEA94E00E946D0C682DC3010E9416126C
:103930006DE174E0CE0143960E944312B301CE01C3
:1039400043960E94AC1162E274E00E9496110E94BC
:103950008F0CCE0143960E94650CC3010E94650C3A
:10396000839475E0E70EF11C85E08812F5CE692D91
:10397000C3010E9416126BEC73E0CE0143960E94C5
:103980004312B301CE0143960E94AC1162E274E08F
:103990000E9496110E948F0CCE0143960E94650CE6
:1039A000C3010E94650CCE01499620CD8AE294E0C5
:1039B0000E947C0C1DCD0E94C805F801892B09F0DE
:1039C00062C05082F5E0CF0ED11C24E0820E911C23
:1039D0000C5F1F4F61E371E06C157D0509F060CC51
:1039E00061E0822D0E94F1057FEFE71AF70A84E07B
:1039F000E816F10409F022CC80911701833009F414
:103A0000BEC008F042C0813009F47DC010E000E083
:103A1000823009F487C00E940A0B0E94800680E071
:103A200090E0892B09F4EDCB0E940000E8CB452BF8
:103A3000A9F0F40130800E94C805F801892B19F51E
:103A400080818111BFCF632D6525F4016083F6016C
:103A5000EE0DFF1D80810E94A80C46CC0E94C80577
:103A6000F8012081892B21F461E02111ABCFEFCF48
:103A7000222309F4A7CF60E0F601EE0DFF1D80813F
:103A80000E94A80CF80110829DCF843009F4C5C0B3
:103A9000853009F0C0CF95E080E030E020E0F5010E
:103AA000E20FF31F4081411181E02F5F3F4F24302F
:103AB0003105A9F79150F4E0AF0EB11C9111EDCF93
:103AC0008093950481118FE090E0B0E0A0E07C014C
:103AD000DD24CC244427582F692F7A2FC42AD52AD5
:103AE000E62AF72AC82AD92AEA2AFB2A10E000E0A7
:103AF000B701A601C8010E94B5020F5F1F4F043134
:103B00001105B1F78ACF10E000E04FE05FE06FE011
:103B100070E0C8010E94B5020F5F1F4F043111050C
:103B2000A1F77BCF40E050E06FE070E0C8010E9459
:103B3000B50240E05FE06FE070E0C80104960E94CB
:103B4000B50240E05FE060E070E0C80108960E94C6
:103B5000B5024FE05FE060E070E0C8010C960E94A3
:103B6000B5024FE050E060E070E0C80140960E946E
:103B7000B5020F5F1F4F04301105A1F64ECFC09064
:103B80007F04EC2DF0E0EF55FC4FE081F0E0EB56C8
:103B9000FB4F8FE0808345E9E42E44E0F42E10E0F3
:103BA00000E0F701D1907F018D2D90E0B0E0A0E022
:103BB000BC01552744278824982EA92EBA2E4829BF
:103BC00059296A297B294D29592B6A2B7B2BC8013E
:103BD0000E94B50280918004843131F4DD2021F00F
:103BE000F7013197DA94D0820F5F1F4F043111052E
:103BF000C1F6F4E1CF1202C010927F04843139F48F
:103C00001092800480917F048F5F80937F04809165
:103C100080048F5F8093800400CF80E02FE0D50187
:103C200090E0E92FE80F3D91332321F0F0E0EB56CF
:103C3000FB4F20839F5F9430A1F78C5F34E0A30E8D
:103C4000B11C843161F7F5E9EF2EF4E0FF2E10E0AE
:103C500000E0F701D1907F018D2D90E0B0E0A0E071
:103C6000BC01552744278824982EA92EBA2E48290E
:103C700059296A297B294D29592B6A2B7B2BC8018D
:103C80000E94B50280918004843131F4DD2021F05E
:103C9000F7013197DA94D0820F5F1F4F043111057D
:103CA000C1F6843109F0B3CF10928004B0CFBC01CB
:103CB000625F7F4FFC01838148E050E080640C9498
:103CC00085070A970C94571E80E995E00E94650CC1
:103CD00080919F059091A0050E949C1F80919C055A
:103CE00090919D0597FD03C060E00C941F06089518
:103CF000BB274A3031F4992322F4BDE29095819597
:103D00009F4F0C94841EBB27FB015527AA27880FC1
:103D1000991FAA1FA41710F0A41B83955051B9F73F
:103D2000A05DAA3308F0A95DA193009779F7B111BE
:103D3000B1931192CB010C949D1EDC01FC01672F05
:103D400071917723E1F7329704C07C916D93708372
:103D50006291AE17BF07C8F30895F999FECF92BDDF
:103D600081BDF89A992780B50895262FF999FECF3D
:103D70001FBA92BD81BD20BD0FB6F894FA9AF99A88
:103D80000FBE019608952F923F924F925F926F92CD
:103D90007F928F929F92AF92BF92CF92DF92EF92DB
:103DA000FF920F931F93CF93DF93CDB7DEB7CA1B5C
:103DB000DB0B0FB6F894DEBF0FBECDBF09942A8887
:103DC000398848885F846E847D848C849B84AA842F
:103DD000B984C884DF80EE80FD800C811B81AA81BC
:103DE000B981CE0FD11D0FB6F894DEBF0FBECDBF87
:103DF000ED010895EE0FFF1F0590F491E02D099459
:103E00000F931F93CF93DF938230910510F482E0DC
:103E100090E0E091AE05F091AF0530E020E0B0E039
:103E2000A0E0309799F42115310509F44AC0281B08
:103E3000390B24303105D8F58A819B8161157105D4
:103E400089F1FB0193838283FE0111C0408151817E
:103E50000281138148175907E0F04817590799F470
:103E6000109761F012960C93129713961C9332964A
:103E7000CF01DF91CF911F910F9108950093AE056F
:103E80001093AF05F4CF2115310551F042175307B8
:103E900038F0A901DB019A01BD01DF01F801C1CFB2
:103EA000EF01F9CF9093AF058093AE05CDCFFE0122
:103EB000E20FF31F819391932250310939832883B4
:103EC000D7CF2091AC053091AD05232B41F4209143
:103ED000AA023091AB023093AD052093AC0520913E
:103EE000A8023091A9022115310541F42DB73EB742
:103EF0004091AC025091AD02241B350BE091AC0512
:103F0000F091AD05E217F307A0F42E1B3F0B281725
:103F1000390778F0AC014E5F5F4F2417350748F042
:103F20004E0F5F1F5093AD054093AC058193919365
:103F30009FCFF0E0E0E09CCFCF93DF930097E9F0D4
:103F4000FC01329713821282A091AE05B091AF05A9
:103F5000ED0130E020E01097A1F420813181820F43
:103F6000931F2091AC053091AD052817390709F052
:103F700061C0F093AD05E093AC05DF91CF9108955A
:103F8000EA01CE17DF07E8F54A815B819E01411502
:103F90005105B1F7E901FB83EA8349915991C40FB7
:103FA000D51FEC17FD0761F4808191810296840F83
:103FB000951FE90199838883828193819B838A83FA
:103FC000F0E0E0E012968D919C9113970097B9F57F
:103FD0002D913C911197CD010296820F931F209154
:103FE000AC053091AD052817390739F6309751F5F2
:103FF0001092AF051092AE05B093AD05A093AC053D
:10400000BCCFD383C28340815181840F951FC817D1
:10401000D90761F44E5F5F4F88819981480F591F1E
:10402000518340838A819B8193838283211531054B
:1040300009F0B0CFF093AF05E093AE059ECFFD0140
:10404000DC01C0CF13821282D7CFB0E0A0E0EBE258
:10405000F0E20C94C51E8C01009751F4CB010E9434
:10406000001F8C01C801CDB7DEB7E0E10C94E11E62
:10407000FC01E60FF71F9C0122503109E217F307FC
:1040800008F49DC0D901CD91DC911197C617D707CF
:1040900098F0C530D10530F3CE0104978617970705
:1040A00008F3C61BD70B2297C193D1936D937C93D2
:1040B000CF010E949C1FD6CF5B01AC1ABD0A4C01F8
:1040C0008C0E9D1EA091AE05B091AF05512C412CD8
:1040D000F12CE12C109731F58091AC059091AD0554
:1040E0008815990509F05CC04616570608F058C0B7
:1040F0008091A8029091A902009741F48DB79EB7D4
:104100004091AC025091AD02841B950BE817F90762
:1041100008F055C0F093AD05E093AC05F90171834B
:104120006083A0CF8D919C91119712966C901297FD
:1041300013967C901397A815B90559F56C0142E0C8
:10414000C40ED11CCA14DB0420F1AC014A195B096E
:10415000DA011296159780F0628273825183408350
:10416000D9016D937C93E114F10471F0D70113969A
:10417000FC93EE93129776CF22968C0F9D1FF90138
:1041800091838083F301EFCFF093AF05E093AE0509
:1041900069CF4816590608F42C017D01D3019ACF46
:1041A000CB010E94001F7C01009749F0AE01B801CD
:1041B0000E94E220C8010E949C1F870153CF10E09B
:1041C00000E050CFFB01DC0102C001900D92415094
:1041D0005040D8F70895FB01DC018D9101908019C2
:1041E0000110D9F3990B0895FB01DC0101900D92A8
:1041F0000020E1F70895AEE0B0E0E1E0F1E20C94D8
:10420000D11E0D891E8986E08C831A8309838FEF66
:104210009FE79E838D83AE01475E5F4F6F89788DE8
:10422000CE0101960E941E212F813885020F131F97
:10423000F80110822E96E4E00C94ED1EABE0B0E0A5
:10424000E4E2F1E20C94C31E7C013B018A01FC0113
:1042500017821682838181FFC8C1CE0101965C015D
:10426000F7019381F30193FD859193FF81913F01C4
:10427000882309F453C1853239F493FD859193FF66
:1042800081913F01853229F4B70190E00E940E230D
:10429000E7CF912C212C312CFFE1F31538F08B3234
:1042A00011F190F4803209F1833229F137FC3CC0DE
:1042B00020ED280F2A3050F536FE20C08AE0989E67
:1042C000200D1124922E06C08D3291F0803371F7AB
:1042D000689430F8F30193FD859193FF81913F013C
:1042E0008111DACF21C0689431F8689432F8F2CFA6
:1042F000689433F8EFCF689434F8ECCFEAE02E9E60
:10430000200D1124222E689435F8E4CF8E3229F442
:1043100036FC04C1689436F8DDCF8C3619F4689405
:1043200037F8D8CF8836B1F2982F9F7D95549330C7
:10433000E0F08336A1F18337C1F1833509F063C022
:104340002801F2E04F0E511CF801C080D180692D88
:1043500070E036FC02C06FEF7FEFC6010E94F822CA
:104360004C01689437F882010AC00C5F1F4FFFE3CD
:10437000F98388248394912C6501E89437F833FEFF
:104380002DC0522C8114910471F5552009F468CF89
:10439000B70180E290E00E940E235A94F6CFF80114
:1043A000808189830E5F1F4FE4CF2801F2E04F0E1A
:1043B000511CF801C080D180692D70E036FC02C02C
:1043C0006FEF7FEFC6010E9403234C018201D5CF1E
:1043D000B70180E290E00E940E232A942814190469
:1043E00009F0B0F7CECFF60137FC859137FE819109
:1043F0006F01B70190E00E940E2351105A94F1E032
:104400008F1A9108BFCF843619F0893609F077C02A
:10441000F80137FE6BC060817181828193810C5FEE
:104420001F4FF32DFF763F2E97FF09C09095809583
:10443000709561957F4F8F4F9F4F689437F82AE0B2
:1044400030E0A5010E943E23C82ECA188C2C432CB4
:1044500036FE0CC0E89440F8C91440F434FE05C0A0
:1044600032FC03C0F32DFE7E4F2E892C44FE95C0F6
:10447000FE01EC0DF11D8081803309F087C0242DF1
:10448000297E422E842D8870582E43FC95C040FE14
:104490008FC09C2C821418F42C0C922C981844FE7B
:1044A00091C0B70180E390E00E940E2342FE09C054
:1044B00088E790E041FE02C088E590E0B7010E94E5
:1044C0000E23C91408F48AC0CA94D12C9FEFC91ACC
:1044D000D90ACA0CDB1CF60182916F01B70190E08A
:1044E0000E940E23AC14BD04B1F74FCF60817181DF
:1044F000072E000C880B990B0E5F1F4F92CFD32C09
:10450000E894D4F82AE030E0853739F1232D297F6B
:10451000D22E8F3601F148F48835A9F0F701868153
:1045200097812B96E2E10C94DF1E803749F08837A3
:10453000A9F7D4FE02C06894D2F820E130E00DC0A3
:104540006894D4F8F6CF34FE03C0822F8660D82E4C
:1045500020E132E002C028E030E0F801D7FE0FC0D1
:1045600060817181828193810C5F1F4FA5010E9440
:104570003E23C82ECA183D2CE89437F867CF6081D7
:10458000718190E080E00E5F1F4FF0CF42FC02C0CF
:10459000839478CF8394839475CF842D867809F49F
:1045A00071CFF6CFB70180E290E00E940E23839492
:1045B0008214C0F3512C73CF522C5818821408F473
:1045C0006ECFF8CF842D867809F47BCF8BE241FE45
:1045D00080E247FC8DE2B70190E071CFB70180E344
:1045E00090E00E940E239A946CCF8FEF9FEF99CFAB
:1045F000FC010590615070400110D8F780959095AE
:104600008E0F9F1F0895FC016150704001900110B2
:10461000D8F7809590958E0F9F1F08950F931F9345
:10462000CF93DF93182F092FEB018B8181FD09C0F8
:104630001FEF0FEF812F902FDF91CF911F910F91DF
:10464000089582FF14C02E813F818C819D8128179F
:1046500039073CF4E881F981CF0101969983888379
:1046600010838E819F8101969F838E83E3CFE8859F
:10467000F985812F0995892BA1F3DACFFA01AA27B1
:10468000283051F1203181F1E8946F936E7F6E5F95
:104690007F4F8F4F9F4FAF4FB1E03ED0B4E03CD043
:1046A000670F781F891F9A1FA11D680F791F8A1F26
:1046B000911DA11D6A0F711D811D911DA11D20D08D
:1046C00009F468943F912AE0269F11243019305D47
:1046D0003193DEF6CF010895462F4770405D419338
:1046E000B3E00FD0C9F7F6CF462F4F70405D4A3385
:1046F00018F0495D31FD4052419302D0A9F7EACF4D
:10470000B4E0A6959795879577956795BA95C9F77B
:1047100000976105710508959B01AC010A2E06946E
:104720005795479537952795BA95C9F7620F731F27
:10473000841F951FA01D089512E0CAE8D2E004C0AE
:10474000FE010E94FA1E2196CB38D107C9F7F894D2
:02475000FFCF99
:104752000A00020100C18081000000FFFFFFFF008C
:10476200E100000000000004DBDCDDDE00E7E8E938
:10477200DF00E4E5E6DF00E1E2E3E000EAFCEBB2C1
:1047820000EF010302000C080D10540A010B115432
:104792000E090F16551213001701B1D8D7B00074C5
:1047A20067687900657275690064666A6B00617397
:1047B2006B6C00DBDCDDDE00E7E8E9DF00E4E5E668
:1047C200DF00E1E2E3E000EAFCEBB20000D8D7D977
:1047D20000373839DA00343536DA003132336600E0
:1047E20030EA20C60000626364006566676800699B
:1047F2006A6B6C006D6E6F70007172737400006290
:104802006364006566676800696A6B6C006D6E6F51
:104812007000717273740000626364006566676899
:1048220000696A6B6C006D6E6F7000717273740058
:1048320000626364006566676800696A6B6C006D9C
:104842006E6F70007172737400006263640065665B
:10485200676800696A6B6C006D6E6F7000717273CD
:10486200740000010302000C080D10540A010B1120
:10487200740E090F1655121300170100929093003F
:10488200888B8C8F008A898E8D0098999A9B009CC8
:104892009D9E9F0000ACADAE009497A0A10096959E
:1048A200A2A300A4A5A6A700A8A9AAAB00006263C0
:1048B20064006566676800696A6B6C006D6E6F7094
:1048C20000717273740000EEECED11656616170547
:1048D200696A6B6C006D6E6F7000717273740000A8
:1048E200B4B5B600B7B8B9BA00BBBCBDBE00BFC054
:1048F20000000004050607000000B005800000006B
:1049020000003508E308A8088D0800000000BA047A
:104912001F08DB04D0046205E0043E05000000002D
:104922006309D809BB09230A571EF6FF00003C0C95
:104932000004B20A5A031B0B611E2A0B000000007E
:104942002A0A000000005B0A000000003C0C000480
:10495200B20A5A031B0BA30A2A0B00000000B50A75
:1049620000000000C60A0D0A00534156450053617B
:10497200766520636F6D706C6574652100206F66CB
:104982002031303234206279746573207573656426
:10499200004C4F414400206279746573204C6F6172
:1049A2006420636F6D706C65746521005052494ECE
:1049B200540050617374652074686973206C697364
:1049C2007420617420276B65795365747327007BAB
:1049D20000307825303258002C007D002F2F200027
:1049E2005345544D4F444500456E746572206B65C6
:1049F2007920736574206E756D626572202830307F
:104A02007E0029004552524F522120506C6561733D
:104A1200652072652D656E746572006B6579207311
:104A2200657420002073656C656374656400456E6F
:104A3200746572206B65792073657420636F6E668E
:104A4200696720696E206865780045783A20307879
:104A520035302C307836312C307845422C30784441
:104A6200462C3078303000456E74657220526F7774
:104A7200200020736176656421004E6F20636F6DA4
:064A82006D616E6421006D
:00000001FF
